{
  "_format": "hh-sol-artifact-1",
  "contractName": "multiSigContractFactory",
  "sourceName": "contracts/MultisigWallet.sol",
  "abi": [
    {
      "inputs": [],
      "stateMutability": "nonpayable",
      "type": "constructor"
    },
    {
      "inputs": [],
      "name": "contractBalance",
      "outputs": [
        {
          "internalType": "uint256",
          "name": "",
          "type": "uint256"
        }
      ],
      "stateMutability": "view",
      "type": "function"
    },
    {
      "inputs": [
        {
          "internalType": "address[]",
          "name": "_owners",
          "type": "address[]"
        },
        {
          "internalType": "uint256",
          "name": "_threshold",
          "type": "uint256"
        }
      ],
      "name": "createContract",
      "outputs": [
        {
          "internalType": "address",
          "name": "",
          "type": "address"
        }
      ],
      "stateMutability": "payable",
      "type": "function"
    },
    {
      "inputs": [
        {
          "internalType": "address",
          "name": "_index",
          "type": "address"
        }
      ],
      "name": "getContractContents",
      "outputs": [
        {
          "internalType": "address",
          "name": "",
          "type": "address"
        },
        {
          "internalType": "uint256",
          "name": "",
          "type": "uint256"
        },
        {
          "internalType": "address[]",
          "name": "",
          "type": "address[]"
        },
        {
          "internalType": "uint256",
          "name": "",
          "type": "uint256"
        }
      ],
      "stateMutability": "view",
      "type": "function"
    },
    {
      "inputs": [],
      "name": "getOwnersContract",
      "outputs": [
        {
          "internalType": "address[]",
          "name": "",
          "type": "address[]"
        }
      ],
      "stateMutability": "view",
      "type": "function"
    },
    {
      "inputs": [],
      "name": "owner",
      "outputs": [
        {
          "internalType": "address",
          "name": "",
          "type": "address"
        }
      ],
      "stateMutability": "view",
      "type": "function"
    },
    {
      "inputs": [
        {
          "internalType": "address",
          "name": "",
          "type": "address"
        },
        {
          "internalType": "uint256",
          "name": "",
          "type": "uint256"
        }
      ],
      "name": "ownersContracts",
      "outputs": [
        {
          "internalType": "address",
          "name": "",
          "type": "address"
        }
      ],
      "stateMutability": "view",
      "type": "function"
    },
    {
      "inputs": [
        {
          "internalType": "address",
          "name": "newOwner",
          "type": "address"
        }
      ],
      "name": "transferOwnership",
      "outputs": [],
      "stateMutability": "nonpayable",
      "type": "function"
    },
    {
      "inputs": [
        {
          "internalType": "uint256",
          "name": "amount",
          "type": "uint256"
        }
      ],
      "name": "withdrawFunds",
      "outputs": [],
      "stateMutability": "nonpayable",
      "type": "function"
    }
  ],
  "bytecode": "0x608060405234801561001057600080fd5b5033600160006101000a81548173ffffffffffffffffffffffffffffffffffffffff021916908373ffffffffffffffffffffffffffffffffffffffff160217905550614608806100616000396000f3fe608060405260043610620000865760003560e01c80638da5cb5b11620000555780638da5cb5b1462000174578063b9982ba714620001a4578063f246f20c14620001da578063f2fde38b146200020a5762000086565b8063155dd5ee146200008b5780631dc9799514620000b95780635f7fcf4314620001005780638b7afe2e1462000144575b600080fd5b3480156200009857600080fd5b50620000b76004803603810190620000b1919062000ad2565b62000238565b005b348015620000c657600080fd5b50620000e56004803603810190620000df919062000b69565b6200039a565b604051620000f7949392919062000c8b565b60405180910390f35b3480156200010d57600080fd5b506200012c600480360381019062000126919062000cdf565b620004b0565b6040516200013b919062000d26565b60405180910390f35b3480156200015157600080fd5b506200015c620004ff565b6040516200016b919062000d43565b60405180910390f35b3480156200018157600080fd5b506200018c62000505565b6040516200019b919062000d26565b60405180910390f35b620001c26004803603810190620001bc919062000ed5565b6200052b565b604051620001d1919062000d26565b60405180910390f35b348015620001e757600080fd5b50620001f2620007b1565b60405162000201919062000f3b565b60405180910390f35b3480156200021757600080fd5b5062000236600480360381019062000230919062000b69565b6200087e565b005b600160009054906101000a900473ffffffffffffffffffffffffffffffffffffffff1673ffffffffffffffffffffffffffffffffffffffff163373ffffffffffffffffffffffffffffffffffffffff1614620002cb576040517f08c379a0000000000000000000000000000000000000000000000000000000008152600401620002c29062000fe6565b60405180910390fd5b60005481111562000313576040517f08c379a00000000000000000000000000000000000000000000000000000000081526004016200030a9062001058565b60405180910390fd5b600160009054906101000a900473ffffffffffffffffffffffffffffffffffffffff1673ffffffffffffffffffffffffffffffffffffffff166108fc829081150290604051600060405180830381858888f193505050501580156200037c573d6000803e3d6000fd5b5080600080828254620003909190620010a9565b9250508190555050565b6000806060600080600260008773ffffffffffffffffffffffffffffffffffffffff1673ffffffffffffffffffffffffffffffffffffffff16815260200190815260200160002090508060000160009054906101000a900473ffffffffffffffffffffffffffffffffffffffff168160010154826002018360030154818054806020026020016040519081016040528092919081815260200182805480156200049957602002820191906000526020600020905b8160009054906101000a900473ffffffffffffffffffffffffffffffffffffffff1673ffffffffffffffffffffffffffffffffffffffff16815260200190600101908083116200044e575b505050505091509450945094509450509193509193565b60036020528160005260406000208181548110620004cd57600080fd5b906000526020600020016000915091509054906101000a900473ffffffffffffffffffffffffffffffffffffffff1681565b60005481565b600160009054906101000a900473ffffffffffffffffffffffffffffffffffffffff1681565b6000662386f26fc100003410156200057a576040517f08c379a000000000000000000000000000000000000000000000000000000000815260040162000571906200115a565b60405180910390fd5b600083836040516200058c90620009c7565b620005999291906200117c565b604051809103906000f080158015620005b6573d6000803e3d6000fd5b50905060005b8451811015620006995760036000868381518110620005e057620005df620011b0565b5b602002602001015173ffffffffffffffffffffffffffffffffffffffff1673ffffffffffffffffffffffffffffffffffffffff168152602001908152602001600020829080600181540180825580915050600190039060005260206000200160009091909190916101000a81548173ffffffffffffffffffffffffffffffffffffffff021916908373ffffffffffffffffffffffffffffffffffffffff16021790555080806200069090620011df565b915050620005bc565b5060405180608001604052803373ffffffffffffffffffffffffffffffffffffffff16815260200142815260200185815260200184815250600260008373ffffffffffffffffffffffffffffffffffffffff1673ffffffffffffffffffffffffffffffffffffffff16815260200190815260200160002060008201518160000160006101000a81548173ffffffffffffffffffffffffffffffffffffffff021916908373ffffffffffffffffffffffffffffffffffffffff1602179055506020820151816001015560408201518160020190805190602001906200077f929190620009d5565b506060820151816003015590505034600080828254620007a091906200122c565b925050819055508091505092915050565b6060600360003373ffffffffffffffffffffffffffffffffffffffff1673ffffffffffffffffffffffffffffffffffffffff1681526020019081526020016000208054806020026020016040519081016040528092919081815260200182805480156200087457602002820191906000526020600020905b8160009054906101000a900473ffffffffffffffffffffffffffffffffffffffff1673ffffffffffffffffffffffffffffffffffffffff168152602001906001019080831162000829575b5050505050905090565b600160009054906101000a900473ffffffffffffffffffffffffffffffffffffffff1673ffffffffffffffffffffffffffffffffffffffff163373ffffffffffffffffffffffffffffffffffffffff161462000911576040517f08c379a0000000000000000000000000000000000000000000000000000000008152600401620009089062000fe6565b60405180910390fd5b600073ffffffffffffffffffffffffffffffffffffffff168173ffffffffffffffffffffffffffffffffffffffff160362000983576040517f08c379a00000000000000000000000000000000000000000000000000000000081526004016200097a90620012b7565b60405180910390fd5b80600160006101000a81548173ffffffffffffffffffffffffffffffffffffffff021916908373ffffffffffffffffffffffffffffffffffffffff16021790555050565b6132f980620012da83390190565b82805482825590600052602060002090810192821562000a51579160200282015b8281111562000a505782518260006101000a81548173ffffffffffffffffffffffffffffffffffffffff021916908373ffffffffffffffffffffffffffffffffffffffff16021790555091602001919060010190620009f6565b5b50905062000a60919062000a64565b5090565b5b8082111562000a7f57600081600090555060010162000a65565b5090565b6000604051905090565b600080fd5b600080fd5b6000819050919050565b62000aac8162000a97565b811462000ab857600080fd5b50565b60008135905062000acc8162000aa1565b92915050565b60006020828403121562000aeb5762000aea62000a8d565b5b600062000afb8482850162000abb565b91505092915050565b600073ffffffffffffffffffffffffffffffffffffffff82169050919050565b600062000b318262000b04565b9050919050565b62000b438162000b24565b811462000b4f57600080fd5b50565b60008135905062000b638162000b38565b92915050565b60006020828403121562000b825762000b8162000a8d565b5b600062000b928482850162000b52565b91505092915050565b62000ba68162000b24565b82525050565b62000bb78162000a97565b82525050565b600081519050919050565b600082825260208201905092915050565b6000819050602082019050919050565b62000bf48162000b24565b82525050565b600062000c08838362000be9565b60208301905092915050565b6000602082019050919050565b600062000c2e8262000bbd565b62000c3a818562000bc8565b935062000c478362000bd9565b8060005b8381101562000c7e57815162000c62888262000bfa565b975062000c6f8362000c14565b92505060018101905062000c4b565b5085935050505092915050565b600060808201905062000ca2600083018762000b9b565b62000cb1602083018662000bac565b818103604083015262000cc5818562000c21565b905062000cd6606083018462000bac565b95945050505050565b6000806040838503121562000cf95762000cf862000a8d565b5b600062000d098582860162000b52565b925050602062000d1c8582860162000abb565b9150509250929050565b600060208201905062000d3d600083018462000b9b565b92915050565b600060208201905062000d5a600083018462000bac565b92915050565b600080fd5b6000601f19601f8301169050919050565b7f4e487b7100000000000000000000000000000000000000000000000000000000600052604160045260246000fd5b62000db08262000d65565b810181811067ffffffffffffffff8211171562000dd25762000dd162000d76565b5b80604052505050565b600062000de762000a83565b905062000df5828262000da5565b919050565b600067ffffffffffffffff82111562000e185762000e1762000d76565b5b602082029050602081019050919050565b600080fd5b600062000e4562000e3f8462000dfa565b62000ddb565b9050808382526020820190506020840283018581111562000e6b5762000e6a62000e29565b5b835b8181101562000e98578062000e83888262000b52565b84526020840193505060208101905062000e6d565b5050509392505050565b600082601f83011262000eba5762000eb962000d60565b5b813562000ecc84826020860162000e2e565b91505092915050565b6000806040838503121562000eef5762000eee62000a8d565b5b600083013567ffffffffffffffff81111562000f105762000f0f62000a92565b5b62000f1e8582860162000ea2565b925050602062000f318582860162000abb565b9150509250929050565b6000602082019050818103600083015262000f57818462000c21565b905092915050565b600082825260208201905092915050565b7f4f6e6c792074686520636f6e7472616374206f776e65722063616e2063616c6c60008201527f20746869732066756e6374696f6e000000000000000000000000000000000000602082015250565b600062000fce602e8362000f5f565b915062000fdb8262000f70565b604082019050919050565b60006020820190508181036000830152620010018162000fbf565b9050919050565b7f496e73756666696369656e742066756e647320696e20636f6e74726163740000600082015250565b600062001040601e8362000f5f565b91506200104d8262001008565b602082019050919050565b60006020820190508181036000830152620010738162001031565b9050919050565b7f4e487b7100000000000000000000000000000000000000000000000000000000600052601160045260246000fd5b6000620010b68262000a97565b9150620010c38362000a97565b9250828203905081811115620010de57620010dd6200107a565b5b92915050565b7f53656e742076616c7565206d757374206265206174206c6561737420302e303160008201527f2065746865720000000000000000000000000000000000000000000000000000602082015250565b60006200114260268362000f5f565b91506200114f82620010e4565b604082019050919050565b60006020820190508181036000830152620011758162001133565b9050919050565b6000604082019050818103600083015262001198818562000c21565b9050620011a9602083018462000bac565b9392505050565b7f4e487b7100000000000000000000000000000000000000000000000000000000600052603260045260246000fd5b6000620011ec8262000a97565b91507fffffffffffffffffffffffffffffffffffffffffffffffffffffffffffffffff82036200122157620012206200107a565b5b600182019050919050565b6000620012398262000a97565b9150620012468362000a97565b92508282019050808211156200126157620012606200107a565b5b92915050565b7f496e76616c6964206e6577206f776e6572206164647265737300000000000000600082015250565b60006200129f60198362000f5f565b9150620012ac8262001267565b602082019050919050565b60006020820190508181036000830152620012d28162001290565b905091905056fe60806040523480156200001157600080fd5b50604051620032f9380380620032f983398181016040528101906200003791906200050d565b60008251116200007e576040517f08c379a00000000000000000000000000000000000000000000000000000000081526004016200007590620005d4565b60405180910390fd5b60008111801562000090575081518111155b620000d2576040517f08c379a0000000000000000000000000000000000000000000000000000000008152600401620000c9906200066c565b60405180910390fd5b60005b8251811015620002d4576000838281518110620000f757620000f66200068e565b5b60200260200101519050600073ffffffffffffffffffffffffffffffffffffffff168173ffffffffffffffffffffffffffffffffffffffff160362000173576040517f08c379a00000000000000000000000000000000000000000000000000000000081526004016200016a906200070d565b60405180910390fd5b600160008273ffffffffffffffffffffffffffffffffffffffff1673ffffffffffffffffffffffffffffffffffffffff16815260200190815260200160002060009054906101000a900460ff161562000203576040517f08c379a0000000000000000000000000000000000000000000000000000000008152600401620001fa906200077f565b60405180910390fd5b60018060008373ffffffffffffffffffffffffffffffffffffffff1673ffffffffffffffffffffffffffffffffffffffff16815260200190815260200160002060006101000a81548160ff0219169083151502179055506000819080600181540180825580915050600190039060005260206000200160009091909190916101000a81548173ffffffffffffffffffffffffffffffffffffffff021916908373ffffffffffffffffffffffffffffffffffffffff160217905550508080620002cb90620007d0565b915050620000d5565b508060028190555050506200081d565b6000604051905090565b600080fd5b600080fd5b600080fd5b6000601f19601f8301169050919050565b7f4e487b7100000000000000000000000000000000000000000000000000000000600052604160045260246000fd5b6200034882620002fd565b810181811067ffffffffffffffff821117156200036a57620003696200030e565b5b80604052505050565b60006200037f620002e4565b90506200038d82826200033d565b919050565b600067ffffffffffffffff821115620003b057620003af6200030e565b5b602082029050602081019050919050565b600080fd5b600073ffffffffffffffffffffffffffffffffffffffff82169050919050565b6000620003f382620003c6565b9050919050565b6200040581620003e6565b81146200041157600080fd5b50565b6000815190506200042581620003fa565b92915050565b6000620004426200043c8462000392565b62000373565b90508083825260208201905060208402830185811115620004685762000467620003c1565b5b835b8181101562000495578062000480888262000414565b8452602084019350506020810190506200046a565b5050509392505050565b600082601f830112620004b757620004b6620002f8565b5b8151620004c98482602086016200042b565b91505092915050565b6000819050919050565b620004e781620004d2565b8114620004f357600080fd5b50565b6000815190506200050781620004dc565b92915050565b60008060408385031215620005275762000526620002ee565b5b600083015167ffffffffffffffff811115620005485762000547620002f3565b5b62000556858286016200049f565b92505060206200056985828601620004f6565b9150509250929050565b600082825260208201905092915050565b7f6f776e6572732072657175697265640000000000000000000000000000000000600082015250565b6000620005bc600f8362000573565b9150620005c98262000584565b602082019050919050565b60006020820190508181036000830152620005ef81620005ad565b9050919050565b7f696e76616c6964206e756d626572206f6620726571756972656420636f6e666960008201527f726d6174696f6e73000000000000000000000000000000000000000000000000602082015250565b60006200065460288362000573565b91506200066182620005f6565b604082019050919050565b60006020820190508181036000830152620006878162000645565b9050919050565b7f4e487b7100000000000000000000000000000000000000000000000000000000600052603260045260246000fd5b7f696e76616c6964206f776e657200000000000000000000000000000000000000600082015250565b6000620006f5600d8362000573565b91506200070282620006bd565b602082019050919050565b600060208201905081810360008301526200072881620006e6565b9050919050565b7f6f776e6572206e6f7420756e6971756500000000000000000000000000000000600082015250565b60006200076760108362000573565b915062000774826200072f565b602082019050919050565b600060208201905081810360008301526200079a8162000758565b9050919050565b7f4e487b7100000000000000000000000000000000000000000000000000000000600052601160045260246000fd5b6000620007dd82620004d2565b91507fffffffffffffffffffffffffffffffffffffffffffffffffffffffffffffffff8203620008125762000811620007a1565b5b600182019050919050565b612acc806200082d6000396000f3fe6080604052600436106101175760003560e01c80639ace38c2116100a0578063ca26f5c811610064578063ca26f5c81461044d578063ca75cbfe14610478578063d0549b85146104a1578063d0e30db0146104cc578063d93db24f146104d65761016e565b80639ace38c21461034e578063a0e67e2b14610391578063a1918af9146103bc578063b7beebbb146103f9578063c01a8c84146104245761016e565b80632e7700f0116100e75780632e7700f0146102535780632f54bf6e1461027e57806332a85b3e146102bb5780636f9fb98a146102e657806380f59a65146103115761016e565b806232d6e214610173578063025e7c27146101b05780630b5761a7146101ed57806320ea8d861461022a5761016e565b3661016e573373ffffffffffffffffffffffffffffffffffffffff167f90890809c654f11d6e72a28fa60149770a0d11ec6c92319d6ceb2bb0a4ea1a153447604051610164929190611f74565b60405180910390a2005b600080fd5b34801561017f57600080fd5b5061019a60048036038101906101959190611fce565b610513565b6040516101a791906121b6565b60405180910390f35b3480156101bc57600080fd5b506101d760048036038101906101d291906121d8565b610616565b6040516101e49190612214565b60405180910390f35b3480156101f957600080fd5b50610214600480360381019061020f9190611fce565b610655565b60405161022191906121b6565b60405180910390f35b34801561023657600080fd5b50610251600480360381019061024c91906121d8565b610758565b005b34801561025f57600080fd5b50610268610a32565b604051610275919061222f565b60405180910390f35b34801561028a57600080fd5b506102a560048036038101906102a09190612276565b610a3f565b6040516102b291906122b2565b60405180910390f35b3480156102c757600080fd5b506102d0610a5f565b6040516102dd91906121b6565b60405180910390f35b3480156102f257600080fd5b506102fb610cd4565b604051610308919061222f565b60405180910390f35b34801561031d57600080fd5b50610338600480360381019061033391906122cd565b610cdc565b60405161034591906122b2565b60405180910390f35b34801561035a57600080fd5b50610375600480360381019061037091906121d8565b610d0b565b604051610388979695949392919061230d565b60405180910390f35b34801561039d57600080fd5b506103a6610daa565b6040516103b3919061242b565b60405180910390f35b3480156103c857600080fd5b506103e360048036038101906103de9190611fce565b610e38565b6040516103f091906121b6565b60405180910390f35b34801561040557600080fd5b5061040e611033565b60405161041b91906121b6565b60405180910390f35b34801561043057600080fd5b5061044b600480360381019061044691906121d8565b611181565b005b34801561045957600080fd5b5061046261147a565b60405161046f91906121b6565b60405180910390f35b34801561048457600080fd5b5061049f600480360381019061049a919061248b565b6116f1565b005b3480156104ad57600080fd5b506104b6611959565b6040516104c3919061222f565b60405180910390f35b6104d461195f565b005b3480156104e257600080fd5b506104fd60048036038101906104f89190612276565b6119b1565b60405161050a919061222f565b60405180910390f35b6060600061051f61147a565b90506000848251610530919061250d565b905060008482106105415784610543565b815b9050600086905060008267ffffffffffffffff81111561056657610565612541565b5b60405190808252806020026020018201604052801561059f57816020015b61058c611ef0565b8152602001906001900390816105845790505b50905060005b83811015610607578583815181106105c0576105bf612570565b5b60200260200101518282815181106105db576105da612570565b5b602002602001018190525082806105f19061259f565b93505080806105ff9061259f565b9150506105a5565b50809550505050505092915050565b6000818154811061062657600080fd5b906000526020600020016000915054906101000a900473ffffffffffffffffffffffffffffffffffffffff1681565b60606000610661610a5f565b90506000848251610672919061250d565b905060008482106106835784610685565b815b9050600086905060008267ffffffffffffffff8111156106a8576106a7612541565b5b6040519080825280602002602001820160405280156106e157816020015b6106ce611ef0565b8152602001906001900390816106c65790505b50905060005b838110156107495785838151811061070257610701612570565b5b602002602001015182828151811061071d5761071c612570565b5b602002602001018190525082806107339061259f565b93505080806107419061259f565b9150506106e7565b50809550505050505092915050565b600160003373ffffffffffffffffffffffffffffffffffffffff1673ffffffffffffffffffffffffffffffffffffffff16815260200190815260200160002060009054906101000a900460ff166107e4576040517f08c379a00000000000000000000000000000000000000000000000000000000081526004016107db90612644565b60405180910390fd5b80600480549050811061082c576040517f08c379a0000000000000000000000000000000000000000000000000000000008152600401610823906126b0565b60405180910390fd5b816004818154811061084157610840612570565b5b906000526020600020906007020160030160009054906101000a900460ff16156108a0576040517f08c379a00000000000000000000000000000000000000000000000000000000081526004016108979061271c565b60405180910390fd5b6000600484815481106108b6576108b5612570565b5b906000526020600020906007020190506003600085815260200190815260200160002060003373ffffffffffffffffffffffffffffffffffffffff1673ffffffffffffffffffffffffffffffffffffffff16815260200190815260200160002060009054906101000a900460ff16610963576040517f08c379a000000000000000000000000000000000000000000000000000000000815260040161095a90612788565b60405180910390fd5b6001816004016000828254610978919061250d565b9250508190555060006003600086815260200190815260200160002060003373ffffffffffffffffffffffffffffffffffffffff1673ffffffffffffffffffffffffffffffffffffffff16815260200190815260200160002060006101000a81548160ff021916908315150217905550833373ffffffffffffffffffffffffffffffffffffffff167ff0dca620e2e81f7841d07bcc105e1704fb01475b278a9d4c236e1c62945edd5560405160405180910390a350505050565b6000600480549050905090565b60016020528060005260406000206000915054906101000a900460ff1681565b60606000805b600480549050811015610acb5760048181548110610a8657610a85612570565b5b906000526020600020906007020160030160009054906101000a900460ff16610ab8578180610ab49061259f565b9250505b8080610ac39061259f565b915050610a65565b5060008167ffffffffffffffff811115610ae857610ae7612541565b5b604051908082528060200260200182016040528015610b2157816020015b610b0e611ef0565b815260200190600190039081610b065790505b5090506000915060005b600480549050811015610ccb5760048181548110610b4c57610b4b612570565b5b906000526020600020906007020160030160009054906101000a900460ff16610cb85760048181548110610b8357610b82612570565b5b90600052602060002090600702016040518060e0016040529081600082015481526020016001820160009054906101000a900473ffffffffffffffffffffffffffffffffffffffff1673ffffffffffffffffffffffffffffffffffffffff1673ffffffffffffffffffffffffffffffffffffffff168152602001600282015481526020016003820160009054906101000a900460ff16151515158152602001600482015481526020016005820160009054906101000a900473ffffffffffffffffffffffffffffffffffffffff1673ffffffffffffffffffffffffffffffffffffffff1673ffffffffffffffffffffffffffffffffffffffff168152602001600682015481525050828481518110610c9e57610c9d612570565b5b60200260200101819052508280610cb49061259f565b9350505b8080610cc39061259f565b915050610b2b565b50809250505090565b600047905090565b60036020528160005260406000206020528060005260406000206000915091509054906101000a900460ff1681565b60048181548110610d1b57600080fd5b90600052602060002090600702016000915090508060000154908060010160009054906101000a900473ffffffffffffffffffffffffffffffffffffffff16908060020154908060030160009054906101000a900460ff16908060040154908060050160009054906101000a900473ffffffffffffffffffffffffffffffffffffffff16908060060154905087565b60606000805480602002602001604051908101604052809291908181526020018280548015610e2e57602002820191906000526020600020905b8160009054906101000a900473ffffffffffffffffffffffffffffffffffffffff1673ffffffffffffffffffffffffffffffffffffffff1681526020019060010190808311610de4575b5050505050905090565b6060600083600480549050610e4d919061250d565b90506000838210610e5e5783610e60565b815b9050600085905060008267ffffffffffffffff811115610e8357610e82612541565b5b604051908082528060200260200182016040528015610ebc57816020015b610ea9611ef0565b815260200190600190039081610ea15790505b50905060005b838110156110255760048381548110610ede57610edd612570565b5b90600052602060002090600702016040518060e0016040529081600082015481526020016001820160009054906101000a900473ffffffffffffffffffffffffffffffffffffffff1673ffffffffffffffffffffffffffffffffffffffff1673ffffffffffffffffffffffffffffffffffffffff168152602001600282015481526020016003820160009054906101000a900460ff16151515158152602001600482015481526020016005820160009054906101000a900473ffffffffffffffffffffffffffffffffffffffff1673ffffffffffffffffffffffffffffffffffffffff1673ffffffffffffffffffffffffffffffffffffffff168152602001600682015481525050828281518110610ff957610ff8612570565b5b6020026020010181905250828061100f9061259f565b935050808061101d9061259f565b915050610ec2565b508094505050505092915050565b60606004805480602002602001604051908101604052809291908181526020016000905b8282101561117857838290600052602060002090600702016040518060e0016040529081600082015481526020016001820160009054906101000a900473ffffffffffffffffffffffffffffffffffffffff1673ffffffffffffffffffffffffffffffffffffffff1673ffffffffffffffffffffffffffffffffffffffff168152602001600282015481526020016003820160009054906101000a900460ff16151515158152602001600482015481526020016005820160009054906101000a900473ffffffffffffffffffffffffffffffffffffffff1673ffffffffffffffffffffffffffffffffffffffff1673ffffffffffffffffffffffffffffffffffffffff16815260200160068201548152505081526020019060010190611057565b50505050905090565b600160003373ffffffffffffffffffffffffffffffffffffffff1673ffffffffffffffffffffffffffffffffffffffff16815260200190815260200160002060009054906101000a900460ff1661120d576040517f08c379a000000000000000000000000000000000000000000000000000000000815260040161120490612644565b60405180910390fd5b806004805490508110611255576040517f08c379a000000000000000000000000000000000000000000000000000000000815260040161124c906126b0565b60405180910390fd5b816004818154811061126a57611269612570565b5b906000526020600020906007020160030160009054906101000a900460ff16156112c9576040517f08c379a00000000000000000000000000000000000000000000000000000000081526004016112c09061271c565b60405180910390fd5b826003600082815260200190815260200160002060003373ffffffffffffffffffffffffffffffffffffffff1673ffffffffffffffffffffffffffffffffffffffff16815260200190815260200160002060009054906101000a900460ff1615611368576040517f08c379a000000000000000000000000000000000000000000000000000000000815260040161135f906127f4565b60405180910390fd5b60006004858154811061137e5761137d612570565b5b9060005260206000209060070201905060018160040160008282546113a39190612814565b9250508190555060016003600087815260200190815260200160002060003373ffffffffffffffffffffffffffffffffffffffff1673ffffffffffffffffffffffffffffffffffffffff16815260200190815260200160002060006101000a81548160ff0219169083151502179055508060040154853373ffffffffffffffffffffffffffffffffffffffff167fb87db7d4ca68768e8dc3b10eeed8c7d9754bcd3706a1272bad38ec70e2ee0fa260405160405180910390a46002548160040154106114735761147285611a34565b5b5050505050565b60606000805b6004805490508110156114e757600481815481106114a1576114a0612570565b5b906000526020600020906007020160030160009054906101000a900460ff16156114d45781806114d09061259f565b9250505b80806114df9061259f565b915050611480565b5060008167ffffffffffffffff81111561150457611503612541565b5b60405190808252806020026020018201604052801561153d57816020015b61152a611ef0565b8152602001906001900390816115225790505b5090506000915060005b6004805490508110156116e8576004818154811061156857611567612570565b5b906000526020600020906007020160030160009054906101000a900460ff16156116d557600481815481106115a05761159f612570565b5b90600052602060002090600702016040518060e0016040529081600082015481526020016001820160009054906101000a900473ffffffffffffffffffffffffffffffffffffffff1673ffffffffffffffffffffffffffffffffffffffff1673ffffffffffffffffffffffffffffffffffffffff168152602001600282015481526020016003820160009054906101000a900460ff16151515158152602001600482015481526020016005820160009054906101000a900473ffffffffffffffffffffffffffffffffffffffff1673ffffffffffffffffffffffffffffffffffffffff1673ffffffffffffffffffffffffffffffffffffffff1681526020016006820154815250508284815181106116bb576116ba612570565b5b602002602001018190525082806116d19061259f565b9350505b80806116e09061259f565b915050611547565b50809250505090565b600160003373ffffffffffffffffffffffffffffffffffffffff1673ffffffffffffffffffffffffffffffffffffffff16815260200190815260200160002060009054906101000a900460ff1661177d576040517f08c379a000000000000000000000000000000000000000000000000000000000815260040161177490612644565b60405180910390fd5b6000600480549050905060046040518060e001604052808381526020018673ffffffffffffffffffffffffffffffffffffffff168152602001858152602001600015158152602001600081526020018473ffffffffffffffffffffffffffffffffffffffff1681526020014281525090806001815401808255809150506001900390600052602060002090600702016000909190919091506000820151816000015560208201518160010160006101000a81548173ffffffffffffffffffffffffffffffffffffffff021916908373ffffffffffffffffffffffffffffffffffffffff1602179055506040820151816002015560608201518160030160006101000a81548160ff0219169083151502179055506080820151816004015560a08201518160050160006101000a81548173ffffffffffffffffffffffffffffffffffffffff021916908373ffffffffffffffffffffffffffffffffffffffff16021790555060c0820151816006015550508373ffffffffffffffffffffffffffffffffffffffff16813373ffffffffffffffffffffffffffffffffffffffff167fcd144288a078b7562351164feb1762115faca27f30827b4142f2bbe27166e3208660405161194b919061222f565b60405180910390a450505050565b60025481565b3373ffffffffffffffffffffffffffffffffffffffff167f90890809c654f11d6e72a28fa60149770a0d11ec6c92319d6ceb2bb0a4ea1a1534476040516119a7929190611f74565b60405180910390a2565b60008173ffffffffffffffffffffffffffffffffffffffff166370a08231306040518263ffffffff1660e01b81526004016119ec9190612214565b602060405180830381865afa158015611a09573d6000803e3d6000fd5b505050506040513d601f19601f82011682018060405250810190611a2d919061285d565b9050919050565b600160003373ffffffffffffffffffffffffffffffffffffffff1673ffffffffffffffffffffffffffffffffffffffff16815260200190815260200160002060009054906101000a900460ff16611ac0576040517f08c379a0000000000000000000000000000000000000000000000000000000008152600401611ab790612644565b60405180910390fd5b806004805490508110611b08576040517f08c379a0000000000000000000000000000000000000000000000000000000008152600401611aff906126b0565b60405180910390fd5b8160048181548110611b1d57611b1c612570565b5b906000526020600020906007020160030160009054906101000a900460ff1615611b7c576040517f08c379a0000000000000000000000000000000000000000000000000000000008152600401611b739061271c565b60405180910390fd5b600060048481548110611b9257611b91612570565b5b9060005260206000209060070201905060025481600401541015611beb576040517f08c379a0000000000000000000000000000000000000000000000000000000008152600401611be2906128d6565b60405180910390fd5b600073ffffffffffffffffffffffffffffffffffffffff168160050160009054906101000a900473ffffffffffffffffffffffffffffffffffffffff1673ffffffffffffffffffffffffffffffffffffffff1603611d7f5760008160010160009054906101000a900473ffffffffffffffffffffffffffffffffffffffff1673ffffffffffffffffffffffffffffffffffffffff168260020154604051611c9190612927565b60006040518083038185875af1925050503d8060008114611cce576040519150601f19603f3d011682016040523d82523d6000602084013e611cd3565b606091505b5050905080611d17576040517f08c379a0000000000000000000000000000000000000000000000000000000008152600401611d0e90612988565b60405180910390fd5b60018260030160006101000a81548160ff021916908315150217905550843373ffffffffffffffffffffffffffffffffffffffff167f5445f318f4f5fcfb66592e68e0cc5822aa15664039bd5f0ffde24c5a8142b1ac60405160405180910390a35050611eeb565b8060050160009054906101000a900473ffffffffffffffffffffffffffffffffffffffff1673ffffffffffffffffffffffffffffffffffffffff1663a9059cbb8260010160009054906101000a900473ffffffffffffffffffffffffffffffffffffffff1683600201546040518363ffffffff1660e01b8152600401611e069291906129a8565b6020604051808303816000875af1158015611e25573d6000803e3d6000fd5b505050506040513d601f19601f82011682018060405250810190611e4991906129fd565b611e88576040517f08c379a0000000000000000000000000000000000000000000000000000000008152600401611e7f90612a76565b60405180910390fd5b60018160030160006101000a81548160ff021916908315150217905550833373ffffffffffffffffffffffffffffffffffffffff167f5445f318f4f5fcfb66592e68e0cc5822aa15664039bd5f0ffde24c5a8142b1ac60405160405180910390a3505b505050565b6040518060e0016040528060008152602001600073ffffffffffffffffffffffffffffffffffffffff1681526020016000815260200160001515815260200160008152602001600073ffffffffffffffffffffffffffffffffffffffff168152602001600081525090565b6000819050919050565b611f6e81611f5b565b82525050565b6000604082019050611f896000830185611f65565b611f966020830184611f65565b9392505050565b600080fd5b611fab81611f5b565b8114611fb657600080fd5b50565b600081359050611fc881611fa2565b92915050565b60008060408385031215611fe557611fe4611f9d565b5b6000611ff385828601611fb9565b925050602061200485828601611fb9565b9150509250929050565b600081519050919050565b600082825260208201905092915050565b6000819050602082019050919050565b61204381611f5b565b82525050565b600073ffffffffffffffffffffffffffffffffffffffff82169050919050565b600061207482612049565b9050919050565b61208481612069565b82525050565b60008115159050919050565b61209f8161208a565b82525050565b60e0820160008201516120bb600085018261203a565b5060208201516120ce602085018261207b565b5060408201516120e1604085018261203a565b5060608201516120f46060850182612096565b506080820151612107608085018261203a565b5060a082015161211a60a085018261207b565b5060c082015161212d60c085018261203a565b50505050565b600061213f83836120a5565b60e08301905092915050565b6000602082019050919050565b60006121638261200e565b61216d8185612019565b93506121788361202a565b8060005b838110156121a95781516121908882612133565b975061219b8361214b565b92505060018101905061217c565b5085935050505092915050565b600060208201905081810360008301526121d08184612158565b905092915050565b6000602082840312156121ee576121ed611f9d565b5b60006121fc84828501611fb9565b91505092915050565b61220e81612069565b82525050565b60006020820190506122296000830184612205565b92915050565b60006020820190506122446000830184611f65565b92915050565b61225381612069565b811461225e57600080fd5b50565b6000813590506122708161224a565b92915050565b60006020828403121561228c5761228b611f9d565b5b600061229a84828501612261565b91505092915050565b6122ac8161208a565b82525050565b60006020820190506122c760008301846122a3565b92915050565b600080604083850312156122e4576122e3611f9d565b5b60006122f285828601611fb9565b925050602061230385828601612261565b9150509250929050565b600060e082019050612322600083018a611f65565b61232f6020830189612205565b61233c6040830188611f65565b61234960608301876122a3565b6123566080830186611f65565b61236360a0830185612205565b61237060c0830184611f65565b98975050505050505050565b600081519050919050565b600082825260208201905092915050565b6000819050602082019050919050565b60006123b4838361207b565b60208301905092915050565b6000602082019050919050565b60006123d88261237c565b6123e28185612387565b93506123ed83612398565b8060005b8381101561241e57815161240588826123a8565b9750612410836123c0565b9250506001810190506123f1565b5085935050505092915050565b6000602082019050818103600083015261244581846123cd565b905092915050565b600061245882612049565b9050919050565b6124688161244d565b811461247357600080fd5b50565b6000813590506124858161245f565b92915050565b6000806000606084860312156124a4576124a3611f9d565b5b60006124b286828701612476565b93505060206124c386828701611fb9565b92505060406124d486828701612261565b9150509250925092565b7f4e487b7100000000000000000000000000000000000000000000000000000000600052601160045260246000fd5b600061251882611f5b565b915061252383611f5b565b925082820390508181111561253b5761253a6124de565b5b92915050565b7f4e487b7100000000000000000000000000000000000000000000000000000000600052604160045260246000fd5b7f4e487b7100000000000000000000000000000000000000000000000000000000600052603260045260246000fd5b60006125aa82611f5b565b91507fffffffffffffffffffffffffffffffffffffffffffffffffffffffffffffffff82036125dc576125db6124de565b5b600182019050919050565b600082825260208201905092915050565b7f6e6f74206f776e65720000000000000000000000000000000000000000000000600082015250565b600061262e6009836125e7565b9150612639826125f8565b602082019050919050565b6000602082019050818103600083015261265d81612621565b9050919050565b7f747820646f6573206e6f74206578697374000000000000000000000000000000600082015250565b600061269a6011836125e7565b91506126a582612664565b602082019050919050565b600060208201905081810360008301526126c98161268d565b9050919050565b7f747820616c726561647920657865637574656400000000000000000000000000600082015250565b60006127066013836125e7565b9150612711826126d0565b602082019050919050565b60006020820190508181036000830152612735816126f9565b9050919050565b7f7478206e6f7420636f6e6669726d656400000000000000000000000000000000600082015250565b60006127726010836125e7565b915061277d8261273c565b602082019050919050565b600060208201905081810360008301526127a181612765565b9050919050565b7f747820616c726561647920636f6e6669726d6564000000000000000000000000600082015250565b60006127de6014836125e7565b91506127e9826127a8565b602082019050919050565b6000602082019050818103600083015261280d816127d1565b9050919050565b600061281f82611f5b565b915061282a83611f5b565b9250828201905080821115612842576128416124de565b5b92915050565b60008151905061285781611fa2565b92915050565b60006020828403121561287357612872611f9d565b5b600061288184828501612848565b91505092915050565b7f63616e6e6f742065786563757465207478000000000000000000000000000000600082015250565b60006128c06011836125e7565b91506128cb8261288a565b602082019050919050565b600060208201905081810360008301526128ef816128b3565b9050919050565b600081905092915050565b50565b60006129116000836128f6565b915061291c82612901565b600082019050919050565b600061293282612904565b9150819050919050565b7f5472616e73616374696f6e206661696c65640000000000000000000000000000600082015250565b60006129726012836125e7565b915061297d8261293c565b602082019050919050565b600060208201905081810360008301526129a181612965565b9050919050565b60006040820190506129bd6000830185612205565b6129ca6020830184611f65565b9392505050565b6129da8161208a565b81146129e557600080fd5b50565b6000815190506129f7816129d1565b92915050565b600060208284031215612a1357612a12611f9d565b5b6000612a21848285016129e8565b91505092915050565b7f455243323020546f6b656e205472616e73666572206661696c65640000000000600082015250565b6000612a60601b836125e7565b9150612a6b82612a2a565b602082019050919050565b60006020820190508181036000830152612a8f81612a53565b905091905056fea2646970667358221220eee72165061e2bcc064d2f7025fec3119f3a25810f9b772fc544cfd28f75c7c564736f6c63430008120033a2646970667358221220999d252ad5c5532ca2fd40ae93421e085ef5649f0a72f6166c878387afb2943f64736f6c63430008120033",
  "linkReferences": {},
  "deployedLinkReferences": {}
}