{
  "_format": "hh-sol-artifact-1",
  "contractName": "MultiSigWallet",
  "sourceName": "contracts/MultisigWallet.sol",
  "abi": [
    {
      "inputs": [
        {
          "internalType": "address[]",
          "name": "_owners",
          "type": "address[]"
        },
        {
          "internalType": "uint256",
          "name": "_numConfirmationsRequired",
          "type": "uint256"
        }
      ],
      "stateMutability": "nonpayable",
      "type": "constructor"
    },
    {
      "anonymous": false,
      "inputs": [
        {
          "indexed": true,
          "internalType": "address",
          "name": "owner",
          "type": "address"
        },
        {
          "indexed": true,
          "internalType": "uint256",
          "name": "txIndex",
          "type": "uint256"
        },
        {
          "indexed": true,
          "internalType": "uint256",
          "name": "numOfCon",
          "type": "uint256"
        }
      ],
      "name": "ConfirmTransaction",
      "type": "event"
    },
    {
      "anonymous": false,
      "inputs": [
        {
          "indexed": true,
          "internalType": "address",
          "name": "sender",
          "type": "address"
        },
        {
          "indexed": false,
          "internalType": "uint256",
          "name": "amount",
          "type": "uint256"
        },
        {
          "indexed": false,
          "internalType": "uint256",
          "name": "balance",
          "type": "uint256"
        }
      ],
      "name": "Deposit",
      "type": "event"
    },
    {
      "anonymous": false,
      "inputs": [
        {
          "indexed": true,
          "internalType": "address",
          "name": "owner",
          "type": "address"
        },
        {
          "indexed": true,
          "internalType": "uint256",
          "name": "txIndex",
          "type": "uint256"
        }
      ],
      "name": "ExecuteTransaction",
      "type": "event"
    },
    {
      "anonymous": false,
      "inputs": [
        {
          "indexed": true,
          "internalType": "address",
          "name": "owner",
          "type": "address"
        },
        {
          "indexed": true,
          "internalType": "uint256",
          "name": "txIndex",
          "type": "uint256"
        }
      ],
      "name": "RevokeConfirmation",
      "type": "event"
    },
    {
      "anonymous": false,
      "inputs": [
        {
          "indexed": true,
          "internalType": "address",
          "name": "owner",
          "type": "address"
        },
        {
          "indexed": true,
          "internalType": "uint256",
          "name": "txIndex",
          "type": "uint256"
        },
        {
          "indexed": true,
          "internalType": "address",
          "name": "to",
          "type": "address"
        },
        {
          "indexed": false,
          "internalType": "uint256",
          "name": "value",
          "type": "uint256"
        }
      ],
      "name": "SubmitTransaction",
      "type": "event"
    },
    {
      "inputs": [
        {
          "internalType": "address",
          "name": "token",
          "type": "address"
        }
      ],
      "name": "balanceOfERC20",
      "outputs": [
        {
          "internalType": "uint256",
          "name": "",
          "type": "uint256"
        }
      ],
      "stateMutability": "view",
      "type": "function"
    },
    {
      "inputs": [
        {
          "internalType": "uint256",
          "name": "_txIndex",
          "type": "uint256"
        }
      ],
      "name": "confirmTransaction",
      "outputs": [],
      "stateMutability": "nonpayable",
      "type": "function"
    },
    {
      "inputs": [],
      "name": "deposit",
      "outputs": [],
      "stateMutability": "payable",
      "type": "function"
    },
    {
      "inputs": [],
      "name": "getContractBalance",
      "outputs": [
        {
          "internalType": "uint256",
          "name": "",
          "type": "uint256"
        }
      ],
      "stateMutability": "view",
      "type": "function"
    },
    {
      "inputs": [
        {
          "internalType": "uint256",
          "name": "offset",
          "type": "uint256"
        },
        {
          "internalType": "uint256",
          "name": "limit",
          "type": "uint256"
        }
      ],
      "name": "getLimitedListOfTransactions",
      "outputs": [
        {
          "components": [
            {
              "internalType": "uint256",
              "name": "id",
              "type": "uint256"
            },
            {
              "internalType": "address",
              "name": "to",
              "type": "address"
            },
            {
              "internalType": "uint256",
              "name": "value",
              "type": "uint256"
            },
            {
              "internalType": "bool",
              "name": "executed",
              "type": "bool"
            },
            {
              "internalType": "uint256",
              "name": "numConfirmations",
              "type": "uint256"
            },
            {
              "internalType": "address",
              "name": "tokenAddr",
              "type": "address"
            },
            {
              "internalType": "uint256",
              "name": "timestamp",
              "type": "uint256"
            }
          ],
          "internalType": "struct MultiSigWallet.Transaction[]",
          "name": "",
          "type": "tuple[]"
        }
      ],
      "stateMutability": "view",
      "type": "function"
    },
    {
      "inputs": [],
      "name": "getListOfTransactions",
      "outputs": [
        {
          "components": [
            {
              "internalType": "uint256",
              "name": "id",
              "type": "uint256"
            },
            {
              "internalType": "address",
              "name": "to",
              "type": "address"
            },
            {
              "internalType": "uint256",
              "name": "value",
              "type": "uint256"
            },
            {
              "internalType": "bool",
              "name": "executed",
              "type": "bool"
            },
            {
              "internalType": "uint256",
              "name": "numConfirmations",
              "type": "uint256"
            },
            {
              "internalType": "address",
              "name": "tokenAddr",
              "type": "address"
            },
            {
              "internalType": "uint256",
              "name": "timestamp",
              "type": "uint256"
            }
          ],
          "internalType": "struct MultiSigWallet.Transaction[]",
          "name": "",
          "type": "tuple[]"
        }
      ],
      "stateMutability": "view",
      "type": "function"
    },
    {
      "inputs": [
        {
          "internalType": "uint256",
          "name": "offset",
          "type": "uint256"
        },
        {
          "internalType": "uint256",
          "name": "limit",
          "type": "uint256"
        }
      ],
      "name": "getOffsetPendingTransaction",
      "outputs": [
        {
          "components": [
            {
              "internalType": "uint256",
              "name": "id",
              "type": "uint256"
            },
            {
              "internalType": "address",
              "name": "to",
              "type": "address"
            },
            {
              "internalType": "uint256",
              "name": "value",
              "type": "uint256"
            },
            {
              "internalType": "bool",
              "name": "executed",
              "type": "bool"
            },
            {
              "internalType": "uint256",
              "name": "numConfirmations",
              "type": "uint256"
            },
            {
              "internalType": "address",
              "name": "tokenAddr",
              "type": "address"
            },
            {
              "internalType": "uint256",
              "name": "timestamp",
              "type": "uint256"
            }
          ],
          "internalType": "struct MultiSigWallet.Transaction[]",
          "name": "",
          "type": "tuple[]"
        }
      ],
      "stateMutability": "view",
      "type": "function"
    },
    {
      "inputs": [
        {
          "internalType": "uint256",
          "name": "offset",
          "type": "uint256"
        },
        {
          "internalType": "uint256",
          "name": "limit",
          "type": "uint256"
        }
      ],
      "name": "getOffsetSuccessfulTransaction",
      "outputs": [
        {
          "components": [
            {
              "internalType": "uint256",
              "name": "id",
              "type": "uint256"
            },
            {
              "internalType": "address",
              "name": "to",
              "type": "address"
            },
            {
              "internalType": "uint256",
              "name": "value",
              "type": "uint256"
            },
            {
              "internalType": "bool",
              "name": "executed",
              "type": "bool"
            },
            {
              "internalType": "uint256",
              "name": "numConfirmations",
              "type": "uint256"
            },
            {
              "internalType": "address",
              "name": "tokenAddr",
              "type": "address"
            },
            {
              "internalType": "uint256",
              "name": "timestamp",
              "type": "uint256"
            }
          ],
          "internalType": "struct MultiSigWallet.Transaction[]",
          "name": "",
          "type": "tuple[]"
        }
      ],
      "stateMutability": "view",
      "type": "function"
    },
    {
      "inputs": [],
      "name": "getOwners",
      "outputs": [
        {
          "internalType": "address[]",
          "name": "",
          "type": "address[]"
        }
      ],
      "stateMutability": "view",
      "type": "function"
    },
    {
      "inputs": [],
      "name": "getPendingTransaction",
      "outputs": [
        {
          "components": [
            {
              "internalType": "uint256",
              "name": "id",
              "type": "uint256"
            },
            {
              "internalType": "address",
              "name": "to",
              "type": "address"
            },
            {
              "internalType": "uint256",
              "name": "value",
              "type": "uint256"
            },
            {
              "internalType": "bool",
              "name": "executed",
              "type": "bool"
            },
            {
              "internalType": "uint256",
              "name": "numConfirmations",
              "type": "uint256"
            },
            {
              "internalType": "address",
              "name": "tokenAddr",
              "type": "address"
            },
            {
              "internalType": "uint256",
              "name": "timestamp",
              "type": "uint256"
            }
          ],
          "internalType": "struct MultiSigWallet.Transaction[]",
          "name": "",
          "type": "tuple[]"
        }
      ],
      "stateMutability": "view",
      "type": "function"
    },
    {
      "inputs": [],
      "name": "getSuccessfulTransaction",
      "outputs": [
        {
          "components": [
            {
              "internalType": "uint256",
              "name": "id",
              "type": "uint256"
            },
            {
              "internalType": "address",
              "name": "to",
              "type": "address"
            },
            {
              "internalType": "uint256",
              "name": "value",
              "type": "uint256"
            },
            {
              "internalType": "bool",
              "name": "executed",
              "type": "bool"
            },
            {
              "internalType": "uint256",
              "name": "numConfirmations",
              "type": "uint256"
            },
            {
              "internalType": "address",
              "name": "tokenAddr",
              "type": "address"
            },
            {
              "internalType": "uint256",
              "name": "timestamp",
              "type": "uint256"
            }
          ],
          "internalType": "struct MultiSigWallet.Transaction[]",
          "name": "",
          "type": "tuple[]"
        }
      ],
      "stateMutability": "view",
      "type": "function"
    },
    {
      "inputs": [],
      "name": "getTransactionCount",
      "outputs": [
        {
          "internalType": "uint256",
          "name": "",
          "type": "uint256"
        }
      ],
      "stateMutability": "view",
      "type": "function"
    },
    {
      "inputs": [
        {
          "internalType": "uint256",
          "name": "",
          "type": "uint256"
        },
        {
          "internalType": "address",
          "name": "",
          "type": "address"
        }
      ],
      "name": "isConfirmed",
      "outputs": [
        {
          "internalType": "bool",
          "name": "",
          "type": "bool"
        }
      ],
      "stateMutability": "view",
      "type": "function"
    },
    {
      "inputs": [
        {
          "internalType": "address",
          "name": "",
          "type": "address"
        }
      ],
      "name": "isOwner",
      "outputs": [
        {
          "internalType": "bool",
          "name": "",
          "type": "bool"
        }
      ],
      "stateMutability": "view",
      "type": "function"
    },
    {
      "inputs": [],
      "name": "numConfirmationsRequired",
      "outputs": [
        {
          "internalType": "uint256",
          "name": "",
          "type": "uint256"
        }
      ],
      "stateMutability": "view",
      "type": "function"
    },
    {
      "inputs": [
        {
          "internalType": "uint256",
          "name": "",
          "type": "uint256"
        }
      ],
      "name": "owners",
      "outputs": [
        {
          "internalType": "address",
          "name": "",
          "type": "address"
        }
      ],
      "stateMutability": "view",
      "type": "function"
    },
    {
      "inputs": [
        {
          "internalType": "uint256",
          "name": "_txIndex",
          "type": "uint256"
        }
      ],
      "name": "revokeConfirmation",
      "outputs": [],
      "stateMutability": "nonpayable",
      "type": "function"
    },
    {
      "inputs": [
        {
          "internalType": "address payable",
          "name": "_to",
          "type": "address"
        },
        {
          "internalType": "uint256",
          "name": "_value",
          "type": "uint256"
        },
        {
          "internalType": "address",
          "name": "_tokenAddress",
          "type": "address"
        }
      ],
      "name": "submitTransaction",
      "outputs": [],
      "stateMutability": "nonpayable",
      "type": "function"
    },
    {
      "inputs": [
        {
          "internalType": "uint256",
          "name": "",
          "type": "uint256"
        }
      ],
      "name": "transactions",
      "outputs": [
        {
          "internalType": "uint256",
          "name": "id",
          "type": "uint256"
        },
        {
          "internalType": "address",
          "name": "to",
          "type": "address"
        },
        {
          "internalType": "uint256",
          "name": "value",
          "type": "uint256"
        },
        {
          "internalType": "bool",
          "name": "executed",
          "type": "bool"
        },
        {
          "internalType": "uint256",
          "name": "numConfirmations",
          "type": "uint256"
        },
        {
          "internalType": "address",
          "name": "tokenAddr",
          "type": "address"
        },
        {
          "internalType": "uint256",
          "name": "timestamp",
          "type": "uint256"
        }
      ],
      "stateMutability": "view",
      "type": "function"
    },
    {
      "stateMutability": "payable",
      "type": "receive"
    }
  ],
  "bytecode": "0x60806040523480156200001157600080fd5b50604051620032f9380380620032f983398181016040528101906200003791906200050d565b60008251116200007e576040517f08c379a00000000000000000000000000000000000000000000000000000000081526004016200007590620005d4565b60405180910390fd5b60008111801562000090575081518111155b620000d2576040517f08c379a0000000000000000000000000000000000000000000000000000000008152600401620000c9906200066c565b60405180910390fd5b60005b8251811015620002d4576000838281518110620000f757620000f66200068e565b5b60200260200101519050600073ffffffffffffffffffffffffffffffffffffffff168173ffffffffffffffffffffffffffffffffffffffff160362000173576040517f08c379a00000000000000000000000000000000000000000000000000000000081526004016200016a906200070d565b60405180910390fd5b600160008273ffffffffffffffffffffffffffffffffffffffff1673ffffffffffffffffffffffffffffffffffffffff16815260200190815260200160002060009054906101000a900460ff161562000203576040517f08c379a0000000000000000000000000000000000000000000000000000000008152600401620001fa906200077f565b60405180910390fd5b60018060008373ffffffffffffffffffffffffffffffffffffffff1673ffffffffffffffffffffffffffffffffffffffff16815260200190815260200160002060006101000a81548160ff0219169083151502179055506000819080600181540180825580915050600190039060005260206000200160009091909190916101000a81548173ffffffffffffffffffffffffffffffffffffffff021916908373ffffffffffffffffffffffffffffffffffffffff160217905550508080620002cb90620007d0565b915050620000d5565b508060028190555050506200081d565b6000604051905090565b600080fd5b600080fd5b600080fd5b6000601f19601f8301169050919050565b7f4e487b7100000000000000000000000000000000000000000000000000000000600052604160045260246000fd5b6200034882620002fd565b810181811067ffffffffffffffff821117156200036a57620003696200030e565b5b80604052505050565b60006200037f620002e4565b90506200038d82826200033d565b919050565b600067ffffffffffffffff821115620003b057620003af6200030e565b5b602082029050602081019050919050565b600080fd5b600073ffffffffffffffffffffffffffffffffffffffff82169050919050565b6000620003f382620003c6565b9050919050565b6200040581620003e6565b81146200041157600080fd5b50565b6000815190506200042581620003fa565b92915050565b6000620004426200043c8462000392565b62000373565b90508083825260208201905060208402830185811115620004685762000467620003c1565b5b835b8181101562000495578062000480888262000414565b8452602084019350506020810190506200046a565b5050509392505050565b600082601f830112620004b757620004b6620002f8565b5b8151620004c98482602086016200042b565b91505092915050565b6000819050919050565b620004e781620004d2565b8114620004f357600080fd5b50565b6000815190506200050781620004dc565b92915050565b60008060408385031215620005275762000526620002ee565b5b600083015167ffffffffffffffff811115620005485762000547620002f3565b5b62000556858286016200049f565b92505060206200056985828601620004f6565b9150509250929050565b600082825260208201905092915050565b7f6f776e6572732072657175697265640000000000000000000000000000000000600082015250565b6000620005bc600f8362000573565b9150620005c98262000584565b602082019050919050565b60006020820190508181036000830152620005ef81620005ad565b9050919050565b7f696e76616c6964206e756d626572206f6620726571756972656420636f6e666960008201527f726d6174696f6e73000000000000000000000000000000000000000000000000602082015250565b60006200065460288362000573565b91506200066182620005f6565b604082019050919050565b60006020820190508181036000830152620006878162000645565b9050919050565b7f4e487b7100000000000000000000000000000000000000000000000000000000600052603260045260246000fd5b7f696e76616c6964206f776e657200000000000000000000000000000000000000600082015250565b6000620006f5600d8362000573565b91506200070282620006bd565b602082019050919050565b600060208201905081810360008301526200072881620006e6565b9050919050565b7f6f776e6572206e6f7420756e6971756500000000000000000000000000000000600082015250565b60006200076760108362000573565b915062000774826200072f565b602082019050919050565b600060208201905081810360008301526200079a8162000758565b9050919050565b7f4e487b7100000000000000000000000000000000000000000000000000000000600052601160045260246000fd5b6000620007dd82620004d2565b91507fffffffffffffffffffffffffffffffffffffffffffffffffffffffffffffffff8203620008125762000811620007a1565b5b600182019050919050565b612acc806200082d6000396000f3fe6080604052600436106101175760003560e01c80639ace38c2116100a0578063ca26f5c811610064578063ca26f5c81461044d578063ca75cbfe14610478578063d0549b85146104a1578063d0e30db0146104cc578063d93db24f146104d65761016e565b80639ace38c21461034e578063a0e67e2b14610391578063a1918af9146103bc578063b7beebbb146103f9578063c01a8c84146104245761016e565b80632e7700f0116100e75780632e7700f0146102535780632f54bf6e1461027e57806332a85b3e146102bb5780636f9fb98a146102e657806380f59a65146103115761016e565b806232d6e214610173578063025e7c27146101b05780630b5761a7146101ed57806320ea8d861461022a5761016e565b3661016e573373ffffffffffffffffffffffffffffffffffffffff167f90890809c654f11d6e72a28fa60149770a0d11ec6c92319d6ceb2bb0a4ea1a153447604051610164929190611f74565b60405180910390a2005b600080fd5b34801561017f57600080fd5b5061019a60048036038101906101959190611fce565b610513565b6040516101a791906121b6565b60405180910390f35b3480156101bc57600080fd5b506101d760048036038101906101d291906121d8565b610616565b6040516101e49190612214565b60405180910390f35b3480156101f957600080fd5b50610214600480360381019061020f9190611fce565b610655565b60405161022191906121b6565b60405180910390f35b34801561023657600080fd5b50610251600480360381019061024c91906121d8565b610758565b005b34801561025f57600080fd5b50610268610a32565b604051610275919061222f565b60405180910390f35b34801561028a57600080fd5b506102a560048036038101906102a09190612276565b610a3f565b6040516102b291906122b2565b60405180910390f35b3480156102c757600080fd5b506102d0610a5f565b6040516102dd91906121b6565b60405180910390f35b3480156102f257600080fd5b506102fb610cd4565b604051610308919061222f565b60405180910390f35b34801561031d57600080fd5b50610338600480360381019061033391906122cd565b610cdc565b60405161034591906122b2565b60405180910390f35b34801561035a57600080fd5b50610375600480360381019061037091906121d8565b610d0b565b604051610388979695949392919061230d565b60405180910390f35b34801561039d57600080fd5b506103a6610daa565b6040516103b3919061242b565b60405180910390f35b3480156103c857600080fd5b506103e360048036038101906103de9190611fce565b610e38565b6040516103f091906121b6565b60405180910390f35b34801561040557600080fd5b5061040e611033565b60405161041b91906121b6565b60405180910390f35b34801561043057600080fd5b5061044b600480360381019061044691906121d8565b611181565b005b34801561045957600080fd5b5061046261147a565b60405161046f91906121b6565b60405180910390f35b34801561048457600080fd5b5061049f600480360381019061049a919061248b565b6116f1565b005b3480156104ad57600080fd5b506104b6611959565b6040516104c3919061222f565b60405180910390f35b6104d461195f565b005b3480156104e257600080fd5b506104fd60048036038101906104f89190612276565b6119b1565b60405161050a919061222f565b60405180910390f35b6060600061051f61147a565b90506000848251610530919061250d565b905060008482106105415784610543565b815b9050600086905060008267ffffffffffffffff81111561056657610565612541565b5b60405190808252806020026020018201604052801561059f57816020015b61058c611ef0565b8152602001906001900390816105845790505b50905060005b83811015610607578583815181106105c0576105bf612570565b5b60200260200101518282815181106105db576105da612570565b5b602002602001018190525082806105f19061259f565b93505080806105ff9061259f565b9150506105a5565b50809550505050505092915050565b6000818154811061062657600080fd5b906000526020600020016000915054906101000a900473ffffffffffffffffffffffffffffffffffffffff1681565b60606000610661610a5f565b90506000848251610672919061250d565b905060008482106106835784610685565b815b9050600086905060008267ffffffffffffffff8111156106a8576106a7612541565b5b6040519080825280602002602001820160405280156106e157816020015b6106ce611ef0565b8152602001906001900390816106c65790505b50905060005b838110156107495785838151811061070257610701612570565b5b602002602001015182828151811061071d5761071c612570565b5b602002602001018190525082806107339061259f565b93505080806107419061259f565b9150506106e7565b50809550505050505092915050565b600160003373ffffffffffffffffffffffffffffffffffffffff1673ffffffffffffffffffffffffffffffffffffffff16815260200190815260200160002060009054906101000a900460ff166107e4576040517f08c379a00000000000000000000000000000000000000000000000000000000081526004016107db90612644565b60405180910390fd5b80600480549050811061082c576040517f08c379a0000000000000000000000000000000000000000000000000000000008152600401610823906126b0565b60405180910390fd5b816004818154811061084157610840612570565b5b906000526020600020906007020160030160009054906101000a900460ff16156108a0576040517f08c379a00000000000000000000000000000000000000000000000000000000081526004016108979061271c565b60405180910390fd5b6000600484815481106108b6576108b5612570565b5b906000526020600020906007020190506003600085815260200190815260200160002060003373ffffffffffffffffffffffffffffffffffffffff1673ffffffffffffffffffffffffffffffffffffffff16815260200190815260200160002060009054906101000a900460ff16610963576040517f08c379a000000000000000000000000000000000000000000000000000000000815260040161095a90612788565b60405180910390fd5b6001816004016000828254610978919061250d565b9250508190555060006003600086815260200190815260200160002060003373ffffffffffffffffffffffffffffffffffffffff1673ffffffffffffffffffffffffffffffffffffffff16815260200190815260200160002060006101000a81548160ff021916908315150217905550833373ffffffffffffffffffffffffffffffffffffffff167ff0dca620e2e81f7841d07bcc105e1704fb01475b278a9d4c236e1c62945edd5560405160405180910390a350505050565b6000600480549050905090565b60016020528060005260406000206000915054906101000a900460ff1681565b60606000805b600480549050811015610acb5760048181548110610a8657610a85612570565b5b906000526020600020906007020160030160009054906101000a900460ff16610ab8578180610ab49061259f565b9250505b8080610ac39061259f565b915050610a65565b5060008167ffffffffffffffff811115610ae857610ae7612541565b5b604051908082528060200260200182016040528015610b2157816020015b610b0e611ef0565b815260200190600190039081610b065790505b5090506000915060005b600480549050811015610ccb5760048181548110610b4c57610b4b612570565b5b906000526020600020906007020160030160009054906101000a900460ff16610cb85760048181548110610b8357610b82612570565b5b90600052602060002090600702016040518060e0016040529081600082015481526020016001820160009054906101000a900473ffffffffffffffffffffffffffffffffffffffff1673ffffffffffffffffffffffffffffffffffffffff1673ffffffffffffffffffffffffffffffffffffffff168152602001600282015481526020016003820160009054906101000a900460ff16151515158152602001600482015481526020016005820160009054906101000a900473ffffffffffffffffffffffffffffffffffffffff1673ffffffffffffffffffffffffffffffffffffffff1673ffffffffffffffffffffffffffffffffffffffff168152602001600682015481525050828481518110610c9e57610c9d612570565b5b60200260200101819052508280610cb49061259f565b9350505b8080610cc39061259f565b915050610b2b565b50809250505090565b600047905090565b60036020528160005260406000206020528060005260406000206000915091509054906101000a900460ff1681565b60048181548110610d1b57600080fd5b90600052602060002090600702016000915090508060000154908060010160009054906101000a900473ffffffffffffffffffffffffffffffffffffffff16908060020154908060030160009054906101000a900460ff16908060040154908060050160009054906101000a900473ffffffffffffffffffffffffffffffffffffffff16908060060154905087565b60606000805480602002602001604051908101604052809291908181526020018280548015610e2e57602002820191906000526020600020905b8160009054906101000a900473ffffffffffffffffffffffffffffffffffffffff1673ffffffffffffffffffffffffffffffffffffffff1681526020019060010190808311610de4575b5050505050905090565b6060600083600480549050610e4d919061250d565b90506000838210610e5e5783610e60565b815b9050600085905060008267ffffffffffffffff811115610e8357610e82612541565b5b604051908082528060200260200182016040528015610ebc57816020015b610ea9611ef0565b815260200190600190039081610ea15790505b50905060005b838110156110255760048381548110610ede57610edd612570565b5b90600052602060002090600702016040518060e0016040529081600082015481526020016001820160009054906101000a900473ffffffffffffffffffffffffffffffffffffffff1673ffffffffffffffffffffffffffffffffffffffff1673ffffffffffffffffffffffffffffffffffffffff168152602001600282015481526020016003820160009054906101000a900460ff16151515158152602001600482015481526020016005820160009054906101000a900473ffffffffffffffffffffffffffffffffffffffff1673ffffffffffffffffffffffffffffffffffffffff1673ffffffffffffffffffffffffffffffffffffffff168152602001600682015481525050828281518110610ff957610ff8612570565b5b6020026020010181905250828061100f9061259f565b935050808061101d9061259f565b915050610ec2565b508094505050505092915050565b60606004805480602002602001604051908101604052809291908181526020016000905b8282101561117857838290600052602060002090600702016040518060e0016040529081600082015481526020016001820160009054906101000a900473ffffffffffffffffffffffffffffffffffffffff1673ffffffffffffffffffffffffffffffffffffffff1673ffffffffffffffffffffffffffffffffffffffff168152602001600282015481526020016003820160009054906101000a900460ff16151515158152602001600482015481526020016005820160009054906101000a900473ffffffffffffffffffffffffffffffffffffffff1673ffffffffffffffffffffffffffffffffffffffff1673ffffffffffffffffffffffffffffffffffffffff16815260200160068201548152505081526020019060010190611057565b50505050905090565b600160003373ffffffffffffffffffffffffffffffffffffffff1673ffffffffffffffffffffffffffffffffffffffff16815260200190815260200160002060009054906101000a900460ff1661120d576040517f08c379a000000000000000000000000000000000000000000000000000000000815260040161120490612644565b60405180910390fd5b806004805490508110611255576040517f08c379a000000000000000000000000000000000000000000000000000000000815260040161124c906126b0565b60405180910390fd5b816004818154811061126a57611269612570565b5b906000526020600020906007020160030160009054906101000a900460ff16156112c9576040517f08c379a00000000000000000000000000000000000000000000000000000000081526004016112c09061271c565b60405180910390fd5b826003600082815260200190815260200160002060003373ffffffffffffffffffffffffffffffffffffffff1673ffffffffffffffffffffffffffffffffffffffff16815260200190815260200160002060009054906101000a900460ff1615611368576040517f08c379a000000000000000000000000000000000000000000000000000000000815260040161135f906127f4565b60405180910390fd5b60006004858154811061137e5761137d612570565b5b9060005260206000209060070201905060018160040160008282546113a39190612814565b9250508190555060016003600087815260200190815260200160002060003373ffffffffffffffffffffffffffffffffffffffff1673ffffffffffffffffffffffffffffffffffffffff16815260200190815260200160002060006101000a81548160ff0219169083151502179055508060040154853373ffffffffffffffffffffffffffffffffffffffff167fb87db7d4ca68768e8dc3b10eeed8c7d9754bcd3706a1272bad38ec70e2ee0fa260405160405180910390a46002548160040154106114735761147285611a34565b5b5050505050565b60606000805b6004805490508110156114e757600481815481106114a1576114a0612570565b5b906000526020600020906007020160030160009054906101000a900460ff16156114d45781806114d09061259f565b9250505b80806114df9061259f565b915050611480565b5060008167ffffffffffffffff81111561150457611503612541565b5b60405190808252806020026020018201604052801561153d57816020015b61152a611ef0565b8152602001906001900390816115225790505b5090506000915060005b6004805490508110156116e8576004818154811061156857611567612570565b5b906000526020600020906007020160030160009054906101000a900460ff16156116d557600481815481106115a05761159f612570565b5b90600052602060002090600702016040518060e0016040529081600082015481526020016001820160009054906101000a900473ffffffffffffffffffffffffffffffffffffffff1673ffffffffffffffffffffffffffffffffffffffff1673ffffffffffffffffffffffffffffffffffffffff168152602001600282015481526020016003820160009054906101000a900460ff16151515158152602001600482015481526020016005820160009054906101000a900473ffffffffffffffffffffffffffffffffffffffff1673ffffffffffffffffffffffffffffffffffffffff1673ffffffffffffffffffffffffffffffffffffffff1681526020016006820154815250508284815181106116bb576116ba612570565b5b602002602001018190525082806116d19061259f565b9350505b80806116e09061259f565b915050611547565b50809250505090565b600160003373ffffffffffffffffffffffffffffffffffffffff1673ffffffffffffffffffffffffffffffffffffffff16815260200190815260200160002060009054906101000a900460ff1661177d576040517f08c379a000000000000000000000000000000000000000000000000000000000815260040161177490612644565b60405180910390fd5b6000600480549050905060046040518060e001604052808381526020018673ffffffffffffffffffffffffffffffffffffffff168152602001858152602001600015158152602001600081526020018473ffffffffffffffffffffffffffffffffffffffff1681526020014281525090806001815401808255809150506001900390600052602060002090600702016000909190919091506000820151816000015560208201518160010160006101000a81548173ffffffffffffffffffffffffffffffffffffffff021916908373ffffffffffffffffffffffffffffffffffffffff1602179055506040820151816002015560608201518160030160006101000a81548160ff0219169083151502179055506080820151816004015560a08201518160050160006101000a81548173ffffffffffffffffffffffffffffffffffffffff021916908373ffffffffffffffffffffffffffffffffffffffff16021790555060c0820151816006015550508373ffffffffffffffffffffffffffffffffffffffff16813373ffffffffffffffffffffffffffffffffffffffff167fcd144288a078b7562351164feb1762115faca27f30827b4142f2bbe27166e3208660405161194b919061222f565b60405180910390a450505050565b60025481565b3373ffffffffffffffffffffffffffffffffffffffff167f90890809c654f11d6e72a28fa60149770a0d11ec6c92319d6ceb2bb0a4ea1a1534476040516119a7929190611f74565b60405180910390a2565b60008173ffffffffffffffffffffffffffffffffffffffff166370a08231306040518263ffffffff1660e01b81526004016119ec9190612214565b602060405180830381865afa158015611a09573d6000803e3d6000fd5b505050506040513d601f19601f82011682018060405250810190611a2d919061285d565b9050919050565b600160003373ffffffffffffffffffffffffffffffffffffffff1673ffffffffffffffffffffffffffffffffffffffff16815260200190815260200160002060009054906101000a900460ff16611ac0576040517f08c379a0000000000000000000000000000000000000000000000000000000008152600401611ab790612644565b60405180910390fd5b806004805490508110611b08576040517f08c379a0000000000000000000000000000000000000000000000000000000008152600401611aff906126b0565b60405180910390fd5b8160048181548110611b1d57611b1c612570565b5b906000526020600020906007020160030160009054906101000a900460ff1615611b7c576040517f08c379a0000000000000000000000000000000000000000000000000000000008152600401611b739061271c565b60405180910390fd5b600060048481548110611b9257611b91612570565b5b9060005260206000209060070201905060025481600401541015611beb576040517f08c379a0000000000000000000000000000000000000000000000000000000008152600401611be2906128d6565b60405180910390fd5b600073ffffffffffffffffffffffffffffffffffffffff168160050160009054906101000a900473ffffffffffffffffffffffffffffffffffffffff1673ffffffffffffffffffffffffffffffffffffffff1603611d7f5760008160010160009054906101000a900473ffffffffffffffffffffffffffffffffffffffff1673ffffffffffffffffffffffffffffffffffffffff168260020154604051611c9190612927565b60006040518083038185875af1925050503d8060008114611cce576040519150601f19603f3d011682016040523d82523d6000602084013e611cd3565b606091505b5050905080611d17576040517f08c379a0000000000000000000000000000000000000000000000000000000008152600401611d0e90612988565b60405180910390fd5b60018260030160006101000a81548160ff021916908315150217905550843373ffffffffffffffffffffffffffffffffffffffff167f5445f318f4f5fcfb66592e68e0cc5822aa15664039bd5f0ffde24c5a8142b1ac60405160405180910390a35050611eeb565b8060050160009054906101000a900473ffffffffffffffffffffffffffffffffffffffff1673ffffffffffffffffffffffffffffffffffffffff1663a9059cbb8260010160009054906101000a900473ffffffffffffffffffffffffffffffffffffffff1683600201546040518363ffffffff1660e01b8152600401611e069291906129a8565b6020604051808303816000875af1158015611e25573d6000803e3d6000fd5b505050506040513d601f19601f82011682018060405250810190611e4991906129fd565b611e88576040517f08c379a0000000000000000000000000000000000000000000000000000000008152600401611e7f90612a76565b60405180910390fd5b60018160030160006101000a81548160ff021916908315150217905550833373ffffffffffffffffffffffffffffffffffffffff167f5445f318f4f5fcfb66592e68e0cc5822aa15664039bd5f0ffde24c5a8142b1ac60405160405180910390a3505b505050565b6040518060e0016040528060008152602001600073ffffffffffffffffffffffffffffffffffffffff1681526020016000815260200160001515815260200160008152602001600073ffffffffffffffffffffffffffffffffffffffff168152602001600081525090565b6000819050919050565b611f6e81611f5b565b82525050565b6000604082019050611f896000830185611f65565b611f966020830184611f65565b9392505050565b600080fd5b611fab81611f5b565b8114611fb657600080fd5b50565b600081359050611fc881611fa2565b92915050565b60008060408385031215611fe557611fe4611f9d565b5b6000611ff385828601611fb9565b925050602061200485828601611fb9565b9150509250929050565b600081519050919050565b600082825260208201905092915050565b6000819050602082019050919050565b61204381611f5b565b82525050565b600073ffffffffffffffffffffffffffffffffffffffff82169050919050565b600061207482612049565b9050919050565b61208481612069565b82525050565b60008115159050919050565b61209f8161208a565b82525050565b60e0820160008201516120bb600085018261203a565b5060208201516120ce602085018261207b565b5060408201516120e1604085018261203a565b5060608201516120f46060850182612096565b506080820151612107608085018261203a565b5060a082015161211a60a085018261207b565b5060c082015161212d60c085018261203a565b50505050565b600061213f83836120a5565b60e08301905092915050565b6000602082019050919050565b60006121638261200e565b61216d8185612019565b93506121788361202a565b8060005b838110156121a95781516121908882612133565b975061219b8361214b565b92505060018101905061217c565b5085935050505092915050565b600060208201905081810360008301526121d08184612158565b905092915050565b6000602082840312156121ee576121ed611f9d565b5b60006121fc84828501611fb9565b91505092915050565b61220e81612069565b82525050565b60006020820190506122296000830184612205565b92915050565b60006020820190506122446000830184611f65565b92915050565b61225381612069565b811461225e57600080fd5b50565b6000813590506122708161224a565b92915050565b60006020828403121561228c5761228b611f9d565b5b600061229a84828501612261565b91505092915050565b6122ac8161208a565b82525050565b60006020820190506122c760008301846122a3565b92915050565b600080604083850312156122e4576122e3611f9d565b5b60006122f285828601611fb9565b925050602061230385828601612261565b9150509250929050565b600060e082019050612322600083018a611f65565b61232f6020830189612205565b61233c6040830188611f65565b61234960608301876122a3565b6123566080830186611f65565b61236360a0830185612205565b61237060c0830184611f65565b98975050505050505050565b600081519050919050565b600082825260208201905092915050565b6000819050602082019050919050565b60006123b4838361207b565b60208301905092915050565b6000602082019050919050565b60006123d88261237c565b6123e28185612387565b93506123ed83612398565b8060005b8381101561241e57815161240588826123a8565b9750612410836123c0565b9250506001810190506123f1565b5085935050505092915050565b6000602082019050818103600083015261244581846123cd565b905092915050565b600061245882612049565b9050919050565b6124688161244d565b811461247357600080fd5b50565b6000813590506124858161245f565b92915050565b6000806000606084860312156124a4576124a3611f9d565b5b60006124b286828701612476565b93505060206124c386828701611fb9565b92505060406124d486828701612261565b9150509250925092565b7f4e487b7100000000000000000000000000000000000000000000000000000000600052601160045260246000fd5b600061251882611f5b565b915061252383611f5b565b925082820390508181111561253b5761253a6124de565b5b92915050565b7f4e487b7100000000000000000000000000000000000000000000000000000000600052604160045260246000fd5b7f4e487b7100000000000000000000000000000000000000000000000000000000600052603260045260246000fd5b60006125aa82611f5b565b91507fffffffffffffffffffffffffffffffffffffffffffffffffffffffffffffffff82036125dc576125db6124de565b5b600182019050919050565b600082825260208201905092915050565b7f6e6f74206f776e65720000000000000000000000000000000000000000000000600082015250565b600061262e6009836125e7565b9150612639826125f8565b602082019050919050565b6000602082019050818103600083015261265d81612621565b9050919050565b7f747820646f6573206e6f74206578697374000000000000000000000000000000600082015250565b600061269a6011836125e7565b91506126a582612664565b602082019050919050565b600060208201905081810360008301526126c98161268d565b9050919050565b7f747820616c726561647920657865637574656400000000000000000000000000600082015250565b60006127066013836125e7565b9150612711826126d0565b602082019050919050565b60006020820190508181036000830152612735816126f9565b9050919050565b7f7478206e6f7420636f6e6669726d656400000000000000000000000000000000600082015250565b60006127726010836125e7565b915061277d8261273c565b602082019050919050565b600060208201905081810360008301526127a181612765565b9050919050565b7f747820616c726561647920636f6e6669726d6564000000000000000000000000600082015250565b60006127de6014836125e7565b91506127e9826127a8565b602082019050919050565b6000602082019050818103600083015261280d816127d1565b9050919050565b600061281f82611f5b565b915061282a83611f5b565b9250828201905080821115612842576128416124de565b5b92915050565b60008151905061285781611fa2565b92915050565b60006020828403121561287357612872611f9d565b5b600061288184828501612848565b91505092915050565b7f63616e6e6f742065786563757465207478000000000000000000000000000000600082015250565b60006128c06011836125e7565b91506128cb8261288a565b602082019050919050565b600060208201905081810360008301526128ef816128b3565b9050919050565b600081905092915050565b50565b60006129116000836128f6565b915061291c82612901565b600082019050919050565b600061293282612904565b9150819050919050565b7f5472616e73616374696f6e206661696c65640000000000000000000000000000600082015250565b60006129726012836125e7565b915061297d8261293c565b602082019050919050565b600060208201905081810360008301526129a181612965565b9050919050565b60006040820190506129bd6000830185612205565b6129ca6020830184611f65565b9392505050565b6129da8161208a565b81146129e557600080fd5b50565b6000815190506129f7816129d1565b92915050565b600060208284031215612a1357612a12611f9d565b5b6000612a21848285016129e8565b91505092915050565b7f455243323020546f6b656e205472616e73666572206661696c65640000000000600082015250565b6000612a60601b836125e7565b9150612a6b82612a2a565b602082019050919050565b60006020820190508181036000830152612a8f81612a53565b905091905056fea2646970667358221220eee72165061e2bcc064d2f7025fec3119f3a25810f9b772fc544cfd28f75c7c564736f6c63430008120033",
  "linkReferences": {},
  "deployedLinkReferences": {}
}